{
  "_format": "hh-sol-artifact-1",
  "contractName": "Main",
  "sourceName": "src/ethereum-hardhat/contracts/Main.sol",
  "abi": [
    {
      "inputs": [],
      "stateMutability": "nonpayable",
      "type": "constructor"
    },
    {
      "inputs": [
        {
          "internalType": "address",
          "name": "account",
          "type": "address"
        }
      ],
      "name": "balanceAccount",
      "outputs": [
        {
          "internalType": "uint256",
          "name": "",
          "type": "uint256"
        }
      ],
      "stateMutability": "view",
      "type": "function"
    },
    {
      "inputs": [
        {
          "internalType": "address",
          "name": "client",
          "type": "address"
        },
        {
          "internalType": "uint256",
          "name": "amount",
          "type": "uint256"
        }
      ],
      "name": "buyTokens",
      "outputs": [],
      "stateMutability": "payable",
      "type": "function"
    },
    {
      "inputs": [
        {
          "internalType": "uint256",
          "name": "amount",
          "type": "uint256"
        }
      ],
      "name": "generateTokens",
      "outputs": [],
      "stateMutability": "nonpayable",
      "type": "function"
    },
    {
      "inputs": [],
      "name": "getContractAddress",
      "outputs": [
        {
          "internalType": "address",
          "name": "",
          "type": "address"
        }
      ],
      "stateMutability": "view",
      "type": "function"
    },
    {
      "inputs": [],
      "name": "getTotalSupply",
      "outputs": [
        {
          "internalType": "uint256",
          "name": "",
          "type": "uint256"
        }
      ],
      "stateMutability": "view",
      "type": "function"
    },
    {
      "inputs": [
        {
          "internalType": "uint256",
          "name": "numTokens",
          "type": "uint256"
        }
      ],
      "name": "priceTokens",
      "outputs": [
        {
          "internalType": "uint256",
          "name": "",
          "type": "uint256"
        }
      ],
      "stateMutability": "pure",
      "type": "function"
    }
  ],
  "bytecode": "0x608060405234801561001057600080fd5b5060405161001d90610109565b6100269061015c565b604051809103906000f080158015610042573d6000803e3d6000fd5b506000806101000a81548173ffffffffffffffffffffffffffffffffffffffff021916908373ffffffffffffffffffffffffffffffffffffffff16021790555033600160006101000a81548173ffffffffffffffffffffffffffffffffffffffff021916908373ffffffffffffffffffffffffffffffffffffffff16021790555030600260006101000a81548173ffffffffffffffffffffffffffffffffffffffff021916908373ffffffffffffffffffffffffffffffffffffffff1602179055506101f2565b61159880610acb83390190565b600061012360038361018f565b915061012e826101a0565b602082019050919050565b6000610146600b8361018f565b9150610151826101c9565b602082019050919050565b6000604082019050818103600083015261017581610139565b9050818103602083015261018881610116565b9050919050565b600082825260208201905092915050565b7f4d56540000000000000000000000000000000000000000000000000000000000600082015250565b7f4d617665746f20434f494e000000000000000000000000000000000000000000600082015250565b6108ca806102016000396000f3fe6080604052600436106100555760003560e01c80630752881a1461005a57806332a2c5d0146100765780635b7c4360146100a1578063a8a2a1b1146100de578063c4e41b221461011b578063ca01ba3914610146575b600080fd5b610074600480360381019061006f9190610599565b61016f565b005b34801561008257600080fd5b5061008b6102ca565b6040516100989190610691565b60405180910390f35b3480156100ad57600080fd5b506100c860048036038101906100c39190610570565b6102f4565b6040516100d591906106f5565b60405180910390f35b3480156100ea57600080fd5b50610105600480360381019061010091906105fe565b6103a7565b60405161011291906106f5565b60405180910390f35b34801561012757600080fd5b506101306103c4565b60405161013d91906106f5565b60405180910390f35b34801561015257600080fd5b5061016d600480360381019061016891906105fe565b61046a565b005b600061017a826103a7565b9050803410156101bf576040517f08c379a00000000000000000000000000000000000000000000000000000000081526004016101b6906106d5565b60405180910390fd5b600081346101cd919061077b565b90503373ffffffffffffffffffffffffffffffffffffffff166108fc829081150290604051600060405180830381858888f19350505050158015610215573d6000803e3d6000fd5b5060008054906101000a900473ffffffffffffffffffffffffffffffffffffffff1673ffffffffffffffffffffffffffffffffffffffff1663a9059cbb85856040518363ffffffff1660e01b81526004016102719291906106ac565b602060405180830381600087803b15801561028b57600080fd5b505af115801561029f573d6000803e3d6000fd5b505050506040513d601f19601f820116820180604052508101906102c391906105d5565b5050505050565b6000600260009054906101000a900473ffffffffffffffffffffffffffffffffffffffff16905090565b60008060009054906101000a900473ffffffffffffffffffffffffffffffffffffffff1673ffffffffffffffffffffffffffffffffffffffff166370a08231836040518263ffffffff1660e01b81526004016103509190610691565b60206040518083038186803b15801561036857600080fd5b505afa15801561037c573d6000803e3d6000fd5b505050506040513d601f19601f820116820180604052508101906103a09190610627565b9050919050565b6000670de0b6b3a7640000826103bd9190610721565b9050919050565b60008060009054906101000a900473ffffffffffffffffffffffffffffffffffffffff1673ffffffffffffffffffffffffffffffffffffffff1663ee8b60256040518163ffffffff1660e01b815260040160206040518083038186803b15801561042d57600080fd5b505afa158015610441573d6000803e3d6000fd5b505050506040513d601f19601f820116820180604052508101906104659190610627565b905090565b60008054906101000a900473ffffffffffffffffffffffffffffffffffffffff1673ffffffffffffffffffffffffffffffffffffffff1663b2aa9f0f600260009054906101000a900473ffffffffffffffffffffffffffffffffffffffff16836040518363ffffffff1660e01b81526004016104e79291906106ac565b600060405180830381600087803b15801561050157600080fd5b505af1158015610515573d6000803e3d6000fd5b5050505050565b60008135905061052b8161084f565b92915050565b60008151905061054081610866565b92915050565b6000813590506105558161087d565b92915050565b60008151905061056a8161087d565b92915050565b60006020828403121561058257600080fd5b60006105908482850161051c565b91505092915050565b600080604083850312156105ac57600080fd5b60006105ba8582860161051c565b92505060206105cb85828601610546565b9150509250929050565b6000602082840312156105e757600080fd5b60006105f584828501610531565b91505092915050565b60006020828403121561061057600080fd5b600061061e84828501610546565b91505092915050565b60006020828403121561063957600080fd5b60006106478482850161055b565b91505092915050565b610659816107af565b82525050565b600061066c601183610710565b915061067782610826565b602082019050919050565b61068b816107ed565b82525050565b60006020820190506106a66000830184610650565b92915050565b60006040820190506106c16000830185610650565b6106ce6020830184610682565b9392505050565b600060208201905081810360008301526106ee8161065f565b9050919050565b600060208201905061070a6000830184610682565b92915050565b600082825260208201905092915050565b600061072c826107ed565b9150610737836107ed565b9250817fffffffffffffffffffffffffffffffffffffffffffffffffffffffffffffffff04831182151516156107705761076f6107f7565b5b828202905092915050565b6000610786826107ed565b9150610791836107ed565b9250828210156107a4576107a36107f7565b5b828203905092915050565b60006107ba826107cd565b9050919050565b60008115159050919050565b600073ffffffffffffffffffffffffffffffffffffffff82169050919050565b6000819050919050565b7f4e487b7100000000000000000000000000000000000000000000000000000000600052601160045260246000fd5b7f4e6f7420656e6f756768206d6f6e657921000000000000000000000000000000600082015250565b610858816107af565b811461086357600080fd5b50565b61086f816107c1565b811461087a57600080fd5b50565b610886816107ed565b811461089157600080fd5b5056fea264697066735822122026b6937ae109bd07c0ca218dcaf6161a6c4dac7c37a46bba528452c89a03da3864736f6c6343000804003360806040523480156200001157600080fd5b506040516200159838038062001598833981810160405281019062000037919062000193565b81600390805190602001906200004f92919062000071565b5080600490805190602001906200006892919062000071565b50505062000376565b8280546200007f906200029b565b90600052602060002090601f016020900481019282620000a35760008555620000ef565b82601f10620000be57805160ff1916838001178555620000ef565b82800160010185558215620000ef579182015b82811115620000ee578251825591602001919060010190620000d1565b5b509050620000fe919062000102565b5090565b5b808211156200011d57600081600090555060010162000103565b5090565b60006200013862000132846200022f565b62000206565b9050828152602081018484840111156200015157600080fd5b6200015e84828562000265565b509392505050565b600082601f8301126200017857600080fd5b81516200018a84826020860162000121565b91505092915050565b60008060408385031215620001a757600080fd5b600083015167ffffffffffffffff811115620001c257600080fd5b620001d08582860162000166565b925050602083015167ffffffffffffffff811115620001ee57600080fd5b620001fc8582860162000166565b9150509250929050565b60006200021262000225565b9050620002208282620002d1565b919050565b6000604051905090565b600067ffffffffffffffff8211156200024d576200024c62000336565b5b620002588262000365565b9050602081019050919050565b60005b838110156200028557808201518184015260208101905062000268565b8381111562000295576000848401525b50505050565b60006002820490506001821680620002b457607f821691505b60208210811415620002cb57620002ca62000307565b5b50919050565b620002dc8262000365565b810181811067ffffffffffffffff82111715620002fe57620002fd62000336565b5b80604052505050565b7f4e487b7100000000000000000000000000000000000000000000000000000000600052602260045260246000fd5b7f4e487b7100000000000000000000000000000000000000000000000000000000600052604160045260246000fd5b6000601f19601f8301169050919050565b61121280620003866000396000f3fe608060405234801561001057600080fd5b506004361061009e5760003560e01c806395d89b411161006657806395d89b411461016f578063a9059cbb1461018d578063b2aa9f0f146101bd578063dd62ed3e146101d9578063ee8b6025146102095761009e565b806306fdde03146100a3578063095ea7b3146100c157806323b872dd146100f1578063313ce5671461012157806370a082311461013f575b600080fd5b6100ab610227565b6040516100b89190610d26565b60405180910390f35b6100db60048036038101906100d69190610b83565b6102b9565b6040516100e89190610d0b565b60405180910390f35b61010b60048036038101906101069190610b34565b6102d5565b6040516101189190610d0b565b60405180910390f35b6101296102fd565b6040516101369190610e28565b60405180910390f35b61015960048036038101906101549190610acf565b610306565b6040516101669190610e28565b60405180910390f35b61017761034e565b6040516101849190610d26565b60405180910390f35b6101a760048036038101906101a29190610b83565b6103e0565b6040516101b49190610d0b565b60405180910390f35b6101d760048036038101906101d29190610b83565b6103fc565b005b6101f360048036038101906101ee9190610af8565b61040a565b6040516102009190610e28565b60405180910390f35b610211610491565b60405161021e9190610e28565b60405180910390f35b60606003805461023690610f30565b80601f016020809104026020016040519081016040528092919081815260200182805461026290610f30565b80156102af5780601f10610284576101008083540402835291602001916102af565b820191906000526020600020905b81548152906001019060200180831161029257829003601f168201915b5050505050905090565b6000803390506102ca81858561049b565b600191505092915050565b6000803390506102e6858285610666565b6102f18585856106f2565b60019150509392505050565b60006012905090565b60008060008373ffffffffffffffffffffffffffffffffffffffff1673ffffffffffffffffffffffffffffffffffffffff168152602001908152602001600020549050919050565b60606004805461035d90610f30565b80601f016020809104026020016040519081016040528092919081815260200182805461038990610f30565b80156103d65780601f106103ab576101008083540402835291602001916103d6565b820191906000526020600020905b8154815290600101906020018083116103b957829003601f168201915b5050505050905090565b6000803390506103f18185856106f2565b600191505092915050565b610406828261095d565b5050565b6000600160008473ffffffffffffffffffffffffffffffffffffffff1673ffffffffffffffffffffffffffffffffffffffff16815260200190815260200160002060008373ffffffffffffffffffffffffffffffffffffffff1673ffffffffffffffffffffffffffffffffffffffff16815260200190815260200160002054905092915050565b6000600254905090565b600073ffffffffffffffffffffffffffffffffffffffff168373ffffffffffffffffffffffffffffffffffffffff16141561050b576040517f08c379a000000000000000000000000000000000000000000000000000000000815260040161050290610dc8565b60405180910390fd5b600073ffffffffffffffffffffffffffffffffffffffff168273ffffffffffffffffffffffffffffffffffffffff16141561057b576040517f08c379a000000000000000000000000000000000000000000000000000000000815260040161057290610d88565b60405180910390fd5b80600160008573ffffffffffffffffffffffffffffffffffffffff1673ffffffffffffffffffffffffffffffffffffffff16815260200190815260200160002060008473ffffffffffffffffffffffffffffffffffffffff1673ffffffffffffffffffffffffffffffffffffffff168152602001908152602001600020819055508173ffffffffffffffffffffffffffffffffffffffff168373ffffffffffffffffffffffffffffffffffffffff167f8c5be1e5ebec7d5bd14f71427d1e84f3dd0314c0f7b2291e5b200ac8c7c3b925836040516106599190610e28565b60405180910390a3505050565b6000610672848461040a565b90507fffffffffffffffffffffffffffffffffffffffffffffffffffffffffffffffff81146106ec57818110156106de576040517f08c379a00000000000000000000000000000000000000000000000000000000081526004016106d590610d68565b60405180910390fd5b6106eb848484840361049b565b5b50505050565b600073ffffffffffffffffffffffffffffffffffffffff168373ffffffffffffffffffffffffffffffffffffffff161415610762576040517f08c379a000000000000000000000000000000000000000000000000000000000815260040161075990610de8565b60405180910390fd5b600073ffffffffffffffffffffffffffffffffffffffff168273ffffffffffffffffffffffffffffffffffffffff1614156107d2576040517f08c379a00000000000000000000000000000000000000000000000000000000081526004016107c990610e08565b60405180910390fd5b60008060008573ffffffffffffffffffffffffffffffffffffffff1673ffffffffffffffffffffffffffffffffffffffff16815260200190815260200160002054905081811015610858576040517f08c379a000000000000000000000000000000000000000000000000000000000815260040161084f90610d48565b60405180910390fd5b8181036000808673ffffffffffffffffffffffffffffffffffffffff1673ffffffffffffffffffffffffffffffffffffffff16815260200190815260200160002081905550816000808573ffffffffffffffffffffffffffffffffffffffff1673ffffffffffffffffffffffffffffffffffffffff16815260200190815260200160002060008282546108eb9190610e5f565b925050819055508273ffffffffffffffffffffffffffffffffffffffff168473ffffffffffffffffffffffffffffffffffffffff167fddf252ad1be2c89b69c2b068fc378daa952ba7f163c4a11628f55a4df523b3ef8460405161094f9190610e28565b60405180910390a350505050565b600073ffffffffffffffffffffffffffffffffffffffff168273ffffffffffffffffffffffffffffffffffffffff1614156109cd576040517f08c379a00000000000000000000000000000000000000000000000000000000081526004016109c490610da8565b60405180910390fd5b80600260008282546109df9190610e5f565b92505081905550806000808473ffffffffffffffffffffffffffffffffffffffff1673ffffffffffffffffffffffffffffffffffffffff1681526020019081526020016000206000828254610a349190610e5f565b925050819055508173ffffffffffffffffffffffffffffffffffffffff16600073ffffffffffffffffffffffffffffffffffffffff167fddf252ad1be2c89b69c2b068fc378daa952ba7f163c4a11628f55a4df523b3ef83604051610a999190610e28565b60405180910390a35050565b600081359050610ab4816111ae565b92915050565b600081359050610ac9816111c5565b92915050565b600060208284031215610ae157600080fd5b6000610aef84828501610aa5565b91505092915050565b60008060408385031215610b0b57600080fd5b6000610b1985828601610aa5565b9250506020610b2a85828601610aa5565b9150509250929050565b600080600060608486031215610b4957600080fd5b6000610b5786828701610aa5565b9350506020610b6886828701610aa5565b9250506040610b7986828701610aba565b9150509250925092565b60008060408385031215610b9657600080fd5b6000610ba485828601610aa5565b9250506020610bb585828601610aba565b9150509250929050565b610bc881610ec7565b82525050565b6000610bd982610e43565b610be38185610e4e565b9350610bf3818560208601610efd565b610bfc81610fc0565b840191505092915050565b6000610c14602783610e4e565b9150610c1f82610fd1565b604082019050919050565b6000610c37601e83610e4e565b9150610c4282611020565b602082019050919050565b6000610c5a602383610e4e565b9150610c6582611049565b604082019050919050565b6000610c7d602083610e4e565b9150610c8882611098565b602082019050919050565b6000610ca0602583610e4e565b9150610cab826110c1565b604082019050919050565b6000610cc3602683610e4e565b9150610cce82611110565b604082019050919050565b6000610ce6602483610e4e565b9150610cf18261115f565b604082019050919050565b610d0581610ef3565b82525050565b6000602082019050610d206000830184610bbf565b92915050565b60006020820190508181036000830152610d408184610bce565b905092915050565b60006020820190508181036000830152610d6181610c07565b9050919050565b60006020820190508181036000830152610d8181610c2a565b9050919050565b60006020820190508181036000830152610da181610c4d565b9050919050565b60006020820190508181036000830152610dc181610c70565b9050919050565b60006020820190508181036000830152610de181610c93565b9050919050565b60006020820190508181036000830152610e0181610cb6565b9050919050565b60006020820190508181036000830152610e2181610cd9565b9050919050565b6000602082019050610e3d6000830184610cfc565b92915050565b600081519050919050565b600082825260208201905092915050565b6000610e6a82610ef3565b9150610e7583610ef3565b9250827fffffffffffffffffffffffffffffffffffffffffffffffffffffffffffffffff03821115610eaa57610ea9610f62565b5b828201905092915050565b6000610ec082610ed3565b9050919050565b60008115159050919050565b600073ffffffffffffffffffffffffffffffffffffffff82169050919050565b6000819050919050565b60005b83811015610f1b578082015181840152602081019050610f00565b83811115610f2a576000848401525b50505050565b60006002820490506001821680610f4857607f821691505b60208210811415610f5c57610f5b610f91565b5b50919050565b7f4e487b7100000000000000000000000000000000000000000000000000000000600052601160045260246000fd5b7f4e487b7100000000000000000000000000000000000000000000000000000000600052602260045260246000fd5b6000601f19601f8301169050919050565b7f45524332303a205472616e7366657220616d6f756e742065786365656473206260008201527f616c616e63652e00000000000000000000000000000000000000000000000000602082015250565b7f45524332303a20496e73756666696369656e7420616c6c6f77616e63652e0000600082015250565b7f45524332303a20417070726f766520746f20746865207a65726f20616464726560008201527f73732e0000000000000000000000000000000000000000000000000000000000602082015250565b7f45524332303a204d696e7420746f20746865207a65726f20616464726573732e600082015250565b7f45524332303a20417070726f76652066726f6d20746865207a65726f2061646460008201527f726573732e000000000000000000000000000000000000000000000000000000602082015250565b7f45524332303a205472616e736665722066726f6d20746865207a65726f20616460008201527f64726573732e0000000000000000000000000000000000000000000000000000602082015250565b7f45524332303a205472616e7366657220746f20746865207a65726f206164647260008201527f6573732e00000000000000000000000000000000000000000000000000000000602082015250565b6111b781610eb5565b81146111c257600080fd5b50565b6111ce81610ef3565b81146111d957600080fd5b5056fea26469706673582212207f1d1c2fec4735fd6973a7074530b09d1f71706a03337fb5a8cc90c2f1b2a8cb64736f6c63430008040033",
  "linkReferences": {},
  "deployedLinkReferences": {}
}