{
  "_format": "hh-sol-artifact-1",
  "contractName": "Lottery",
  "sourceName": "src/ethereum-hardhat/contracts/Lottery.sol",
  "abi": [
    {
      "inputs": [],
      "stateMutability": "nonpayable",
      "type": "constructor"
    },
    {
      "inputs": [],
      "name": "enter",
      "outputs": [],
      "stateMutability": "payable",
      "type": "function"
    },
    {
      "inputs": [],
      "name": "getPlayers",
      "outputs": [
        {
          "internalType": "address[]",
          "name": "",
          "type": "address[]"
        }
      ],
      "stateMutability": "view",
      "type": "function"
    },
    {
      "inputs": [],
      "name": "manager",
      "outputs": [
        {
          "internalType": "address",
          "name": "",
          "type": "address"
        }
      ],
      "stateMutability": "view",
      "type": "function"
    },
    {
      "inputs": [],
      "name": "pickWinner",
      "outputs": [],
      "stateMutability": "nonpayable",
      "type": "function"
    },
    {
      "inputs": [
        {
          "internalType": "uint256",
          "name": "",
          "type": "uint256"
        }
      ],
      "name": "players",
      "outputs": [
        {
          "internalType": "address",
          "name": "",
          "type": "address"
        }
      ],
      "stateMutability": "view",
      "type": "function"
    },
    {
      "inputs": [],
      "name": "random",
      "outputs": [
        {
          "internalType": "uint256",
          "name": "",
          "type": "uint256"
        }
      ],
      "stateMutability": "view",
      "type": "function"
    }
  ],
  "bytecode": "0x608060405234801561001057600080fd5b5033600160006101000a81548173ffffffffffffffffffffffffffffffffffffffff021916908373ffffffffffffffffffffffffffffffffffffffff160217905550610a54806100616000396000f3fe6080604052600436106100555760003560e01c8063481c6a751461005a5780635d495aea146100855780635ec01e4d1461009c5780638b5b9ccc146100c7578063e97dcb62146100f2578063f71d96cb146100fc575b600080fd5b34801561006657600080fd5b5061006f610139565b60405161007c919061079b565b60405180910390f35b34801561009157600080fd5b5061009a61015f565b005b3480156100a857600080fd5b506100b161033e565b6040516100be9190610818565b60405180910390f35b3480156100d357600080fd5b506100dc610374565b6040516100e991906107b6565b60405180910390f35b6100fa610402565b005b34801561010857600080fd5b50610123600480360381019061011e91906105ad565b6104b2565b604051610130919061079b565b60405180910390f35b600160009054906101000a900473ffffffffffffffffffffffffffffffffffffffff1681565b600160009054906101000a900473ffffffffffffffffffffffffffffffffffffffff1673ffffffffffffffffffffffffffffffffffffffff163373ffffffffffffffffffffffffffffffffffffffff16146101ef576040517f08c379a00000000000000000000000000000000000000000000000000000000081526004016101e6906107f8565b60405180910390fd5b600080805490506101fe61033e565b6102089190610935565b905060008181548110610244577f4e487b7100000000000000000000000000000000000000000000000000000000600052603260045260246000fd5b9060005260206000200160009054906101000a900473ffffffffffffffffffffffffffffffffffffffff1673ffffffffffffffffffffffffffffffffffffffff166108fc479081150290604051600060405180830381858888f193505050501580156102b4573d6000803e3d6000fd5b50600067ffffffffffffffff8111156102f6577f4e487b7100000000000000000000000000000000000000000000000000000000600052604160045260246000fd5b6040519080825280602002602001820160405280156103245781602001602082028036833780820191505090505b506000908051906020019061033a9291906104f1565b5050565b60004442600060405160200161035693929190610762565b6040516020818303038152906040528051906020012060001c905090565b606060008054806020026020016040519081016040528092919081815260200182805480156103f857602002820191906000526020600020905b8160009054906101000a900473ffffffffffffffffffffffffffffffffffffffff1673ffffffffffffffffffffffffffffffffffffffff16815260200190600101908083116103ae575b5050505050905090565b671bc16d674ec8000034101561044d576040517f08c379a0000000000000000000000000000000000000000000000000000000008152600401610444906107d8565b60405180910390fd5b6000339080600181540180825580915050600190039060005260206000200160009091909190916101000a81548173ffffffffffffffffffffffffffffffffffffffff021916908373ffffffffffffffffffffffffffffffffffffffff160217905550565b600081815481106104c257600080fd5b906000526020600020016000915054906101000a900473ffffffffffffffffffffffffffffffffffffffff1681565b82805482825590600052602060002090810192821561056a579160200282015b828111156105695782518260006101000a81548173ffffffffffffffffffffffffffffffffffffffff021916908373ffffffffffffffffffffffffffffffffffffffff16021790555091602001919060010190610511565b5b509050610577919061057b565b5090565b5b8082111561059457600081600090555060010161057c565b5090565b6000813590506105a781610a07565b92915050565b6000602082840312156105bf57600080fd5b60006105cd84828501610598565b91505092915050565b60006105e28383610606565b60208301905092915050565b60006105fa8383610624565b60208301905092915050565b61060f816108d5565b82525050565b61061e816108d5565b82525050565b61062d816108d5565b82525050565b600061063e82610858565b6106488185610888565b935061065383610833565b8060005b8381101561068457815161066b88826105d6565b97506106768361086e565b925050600181019050610657565b5085935050505092915050565b600061069c82610863565b6106a68185610899565b93506106b183610843565b8060005b838110156106e9576106c682610995565b6106d088826105ee565b97506106db8361087b565b9250506001810190506106b5565b5085935050505092915050565b60006107036011836108a4565b915061070e826109b5565b602082019050919050565b60006107266017836108a4565b9150610731826109de565b602082019050919050565b61074581610907565b82525050565b61075c61075782610907565b61092b565b82525050565b600061076e828661074b565b60208201915061077e828561074b565b60208201915061078e8284610691565b9150819050949350505050565b60006020820190506107b06000830184610615565b92915050565b600060208201905081810360008301526107d08184610633565b905092915050565b600060208201905081810360008301526107f1816106f6565b9050919050565b6000602082019050818103600083015261081181610719565b9050919050565b600060208201905061082d600083018461073c565b92915050565b6000819050602082019050919050565b60008190508160005260206000209050919050565b600081519050919050565b600081549050919050565b6000602082019050919050565b6000600182019050919050565b600082825260208201905092915050565b600081905092915050565b600082825260208201905092915050565b600073ffffffffffffffffffffffffffffffffffffffff82169050919050565b60006108e0826108e7565b9050919050565b600073ffffffffffffffffffffffffffffffffffffffff82169050919050565b6000819050919050565b600061092461091f836109a8565b6108b5565b9050919050565b6000819050919050565b600061094082610907565b915061094b83610907565b92508261095b5761095a610966565b5b828206905092915050565b7f4e487b7100000000000000000000000000000000000000000000000000000000600052601260045260246000fd5b60006109a18254610911565b9050919050565b60008160001c9050919050565b7f4e6f7420656e6f756768206d6f6e657921000000000000000000000000000000600082015250565b7f596f7520617265206e6f7420746865206d616e61676572000000000000000000600082015250565b610a1081610907565b8114610a1b57600080fd5b5056fea26469706673582212204f5b60437f6076003580a121cbd5eae315cb72863ffb69d5b7a17d2e6aa13b6a64736f6c63430008040033",
  "linkReferences": {},
  "deployedLinkReferences": {}
}