{
  "contractName": "Lottery",
  "abi": [
    {
      "inputs": [],
      "stateMutability": "nonpayable",
      "type": "constructor"
    },
    {
      "inputs": [],
      "name": "manager",
      "outputs": [
        {
          "internalType": "address",
          "name": "",
          "type": "address"
        }
      ],
      "stateMutability": "view",
      "type": "function",
      "constant": true
    },
    {
      "inputs": [
        {
          "internalType": "uint256",
          "name": "",
          "type": "uint256"
        }
      ],
      "name": "players",
      "outputs": [
        {
          "internalType": "address",
          "name": "",
          "type": "address"
        }
      ],
      "stateMutability": "view",
      "type": "function",
      "constant": true
    },
    {
      "inputs": [],
      "name": "enter",
      "outputs": [],
      "stateMutability": "payable",
      "type": "function",
      "payable": true
    },
    {
      "inputs": [],
      "name": "random",
      "outputs": [
        {
          "internalType": "uint256",
          "name": "",
          "type": "uint256"
        }
      ],
      "stateMutability": "view",
      "type": "function",
      "constant": true
    },
    {
      "inputs": [],
      "name": "pickWinner",
      "outputs": [],
      "stateMutability": "nonpayable",
      "type": "function"
    },
    {
      "inputs": [],
      "name": "getPlayers",
      "outputs": [
        {
          "internalType": "address[]",
          "name": "",
          "type": "address[]"
        }
      ],
      "stateMutability": "view",
      "type": "function",
      "constant": true
    }
  ],
  "bytecode": "0x608060405234801561001057600080fd5b5033600160006101000a81548173ffffffffffffffffffffffffffffffffffffffff021916908373ffffffffffffffffffffffffffffffffffffffff160217905550610973806100616000396000f3fe6080604052600436106100555760003560e01c8063481c6a751461005a5780635d495aea146100855780635ec01e4d1461009c5780638b5b9ccc146100c7578063e97dcb62146100f2578063f71d96cb146100fc575b600080fd5b34801561006657600080fd5b5061006f610139565b60405161007c91906104fd565b60405180910390f35b34801561009157600080fd5b5061009a61015f565b005b3480156100a857600080fd5b506100b1610262565b6040516100be9190610531565b60405180910390f35b3480156100d357600080fd5b506100dc610298565b6040516100e9919061060a565b60405180910390f35b6100fa610326565b005b34801561010857600080fd5b50610123600480360381019061011e919061065d565b6103d6565b60405161013091906104fd565b60405180910390f35b600160009054906101000a900473ffffffffffffffffffffffffffffffffffffffff1681565b6000808054905061016e610262565b61017891906106b9565b90506000818154811061018e5761018d6106ea565b5b9060005260206000200160009054906101000a900473ffffffffffffffffffffffffffffffffffffffff1673ffffffffffffffffffffffffffffffffffffffff166108fc479081150290604051600060405180830381858888f193505050501580156101fe573d6000803e3d6000fd5b50600067ffffffffffffffff81111561021a57610219610719565b5b6040519080825280602002602001820160405280156102485781602001602082028036833780820191505090505b506000908051906020019061025e929190610415565b5050565b60004442600060405160200161027a93929190610887565b6040516020818303038152906040528051906020012060001c905090565b6060600080548060200260200160405190810160405280929190818152602001828054801561031c57602002820191906000526020600020905b8160009054906101000a900473ffffffffffffffffffffffffffffffffffffffff1673ffffffffffffffffffffffffffffffffffffffff16815260200190600101908083116102d2575b5050505050905090565b671bc16d674ec80000341015610371576040517f08c379a00000000000000000000000000000000000000000000000000000000081526004016103689061091d565b60405180910390fd5b6000339080600181540180825580915050600190039060005260206000200160009091909190916101000a81548173ffffffffffffffffffffffffffffffffffffffff021916908373ffffffffffffffffffffffffffffffffffffffff160217905550565b600081815481106103e657600080fd5b906000526020600020016000915054906101000a900473ffffffffffffffffffffffffffffffffffffffff1681565b82805482825590600052602060002090810192821561048e579160200282015b8281111561048d5782518260006101000a81548173ffffffffffffffffffffffffffffffffffffffff021916908373ffffffffffffffffffffffffffffffffffffffff16021790555091602001919060010190610435565b5b50905061049b919061049f565b5090565b5b808211156104b85760008160009055506001016104a0565b5090565b600073ffffffffffffffffffffffffffffffffffffffff82169050919050565b60006104e7826104bc565b9050919050565b6104f7816104dc565b82525050565b600060208201905061051260008301846104ee565b92915050565b6000819050919050565b61052b81610518565b82525050565b60006020820190506105466000830184610522565b92915050565b600081519050919050565b600082825260208201905092915050565b6000819050602082019050919050565b610581816104dc565b82525050565b60006105938383610578565b60208301905092915050565b6000602082019050919050565b60006105b78261054c565b6105c18185610557565b93506105cc83610568565b8060005b838110156105fd5781516105e48882610587565b97506105ef8361059f565b9250506001810190506105d0565b5085935050505092915050565b6000602082019050818103600083015261062481846105ac565b905092915050565b600080fd5b61063a81610518565b811461064557600080fd5b50565b60008135905061065781610631565b92915050565b6000602082840312156106735761067261062c565b5b600061068184828501610648565b91505092915050565b7f4e487b7100000000000000000000000000000000000000000000000000000000600052601260045260246000fd5b60006106c482610518565b91506106cf83610518565b9250826106df576106de61068a565b5b828206905092915050565b7f4e487b7100000000000000000000000000000000000000000000000000000000600052603260045260246000fd5b7f4e487b7100000000000000000000000000000000000000000000000000000000600052604160045260246000fd5b6000819050919050565b61076361075e82610518565b610748565b82525050565b600081549050919050565b600081905092915050565b60008190508160005260206000209050919050565b61079d816104dc565b82525050565b60006107af8383610794565b60208301905092915050565b60008160001c9050919050565b600073ffffffffffffffffffffffffffffffffffffffff82169050919050565b60006107fb6107f6836107bb565b6107c8565b9050919050565b600061080e82546107e8565b9050919050565b6000600182019050919050565b600061082d82610769565b6108378185610774565b93506108428361077f565b8060005b8381101561087a5761085782610802565b61086188826107a3565b975061086c83610815565b925050600181019050610846565b5085935050505092915050565b60006108938286610752565b6020820191506108a38285610752565b6020820191506108b38284610822565b9150819050949350505050565b600082825260208201905092915050565b7f4e6f7420656e6f756768206d6f6e657921000000000000000000000000000000600082015250565b60006109076011836108c0565b9150610912826108d1565b602082019050919050565b60006020820190508181036000830152610936816108fa565b905091905056fea2646970667358221220fdb82dc53e7fd6733ffd5041cd1c8a99ed1a7e4ba54d778f512ddf2c4b2880cb64736f6c634300080e0033",
  "immutableReferences": {},
  "source": "//SPDX-License-Identifier: GPL-3.0\r\npragma solidity ^0.8.0;\r\n\r\ncontract Lottery {\r\n\r\n    address[] public players;\r\n    address public manager;\r\n\r\n    constructor() {\r\n        manager = msg.sender;\r\n    }\r\n\r\n    function enter() public payable {\r\n        require(msg.value >= 2 ether, \"Not enough money!\");\r\n        players.push(msg.sender);\r\n    }\r\n\r\n    function random() public view returns(uint) {\r\n        return uint(keccak256(abi.encodePacked(block.difficulty, block.timestamp, players)));\r\n    }\r\n\r\n    function pickWinner() public {\r\n        uint index = random() % players.length;\r\n        payable(players[index]).transfer(address(this).balance);\r\n        players = new address[](0);\r\n    }\r\n\r\n    modifier restricted() {\r\n        require(msg.sender == manager, \"You are not the manager\");\r\n        _;\r\n    }\r\n\r\n    function getPlayers() public view returns(address[] memory) {\r\n        return players;\r\n    }\r\n}",
  "sourcePath": "D:\\Carpetas U\\Certificacion de Blockchain\\lotery-test\\contracts\\Lottery.sol",
  "compiler": {
    "name": "solc",
    "version": "0.8.14+commit.80d49f37.Emscripten.clang"
  },
  "schemaVersion": "3.4.7",
  "updatedAt": "2022-06-07T18:19:36.780Z",
  "networkType": "ethereum",
  "devdoc": {
    "kind": "dev",
    "methods": {},
    "version": 1
  },
  "userdoc": {
    "kind": "user",
    "methods": {},
    "version": 1
  }
}